{
  "_format": "hh-sol-artifact-1",
  "contractName": "X2EarnRewardsPoolMock",
  "sourceName": "contracts/mock/X2EarnRewardsPoolMock.sol",
  "abi": [
    {
      "inputs": [
        {
          "internalType": "address",
          "name": "_admin",
          "type": "address"
        },
        {
          "internalType": "contract IToken",
          "name": "_b3tr",
          "type": "address"
        },
        {
          "internalType": "contract IX2EarnAppsMock",
          "name": "_x2EarnApps",
          "type": "address"
        }
      ],
      "stateMutability": "nonpayable",
      "type": "constructor"
    },
    {
      "inputs": [],
      "name": "AccessControlBadConfirmation",
      "type": "error"
    },
    {
      "inputs": [
        {
          "internalType": "address",
          "name": "account",
          "type": "address"
        },
        {
          "internalType": "bytes32",
          "name": "neededRole",
          "type": "bytes32"
        }
      ],
      "name": "AccessControlUnauthorizedAccount",
      "type": "error"
    },
    {
      "inputs": [],
      "name": "ReentrancyGuardReentrantCall",
      "type": "error"
    },
    {
      "anonymous": false,
      "inputs": [
        {
          "indexed": false,
          "internalType": "uint256",
          "name": "amount",
          "type": "uint256"
        },
        {
          "indexed": true,
          "internalType": "bytes32",
          "name": "appId",
          "type": "bytes32"
        },
        {
          "indexed": true,
          "internalType": "address",
          "name": "depositor",
          "type": "address"
        }
      ],
      "name": "NewDeposit",
      "type": "event"
    },
    {
      "anonymous": false,
      "inputs": [
        {
          "indexed": false,
          "internalType": "uint256",
          "name": "amount",
          "type": "uint256"
        },
        {
          "indexed": true,
          "internalType": "bytes32",
          "name": "appId",
          "type": "bytes32"
        },
        {
          "indexed": true,
          "internalType": "address",
          "name": "receiver",
          "type": "address"
        },
        {
          "indexed": false,
          "internalType": "string",
          "name": "proof",
          "type": "string"
        },
        {
          "indexed": true,
          "internalType": "address",
          "name": "distributor",
          "type": "address"
        }
      ],
      "name": "RewardDistributed",
      "type": "event"
    },
    {
      "anonymous": false,
      "inputs": [
        {
          "indexed": true,
          "internalType": "bytes32",
          "name": "role",
          "type": "bytes32"
        },
        {
          "indexed": true,
          "internalType": "bytes32",
          "name": "previousAdminRole",
          "type": "bytes32"
        },
        {
          "indexed": true,
          "internalType": "bytes32",
          "name": "newAdminRole",
          "type": "bytes32"
        }
      ],
      "name": "RoleAdminChanged",
      "type": "event"
    },
    {
      "anonymous": false,
      "inputs": [
        {
          "indexed": true,
          "internalType": "bytes32",
          "name": "role",
          "type": "bytes32"
        },
        {
          "indexed": true,
          "internalType": "address",
          "name": "account",
          "type": "address"
        },
        {
          "indexed": true,
          "internalType": "address",
          "name": "sender",
          "type": "address"
        }
      ],
      "name": "RoleGranted",
      "type": "event"
    },
    {
      "anonymous": false,
      "inputs": [
        {
          "indexed": true,
          "internalType": "bytes32",
          "name": "role",
          "type": "bytes32"
        },
        {
          "indexed": true,
          "internalType": "address",
          "name": "account",
          "type": "address"
        },
        {
          "indexed": true,
          "internalType": "address",
          "name": "sender",
          "type": "address"
        }
      ],
      "name": "RoleRevoked",
      "type": "event"
    },
    {
      "anonymous": false,
      "inputs": [
        {
          "indexed": false,
          "internalType": "uint256",
          "name": "amount",
          "type": "uint256"
        },
        {
          "indexed": true,
          "internalType": "bytes32",
          "name": "appId",
          "type": "bytes32"
        },
        {
          "indexed": true,
          "internalType": "address",
          "name": "teamWallet",
          "type": "address"
        },
        {
          "indexed": false,
          "internalType": "address",
          "name": "withdrawer",
          "type": "address"
        },
        {
          "indexed": false,
          "internalType": "string",
          "name": "reason",
          "type": "string"
        }
      ],
      "name": "TeamWithdrawal",
      "type": "event"
    },
    {
      "stateMutability": "payable",
      "type": "fallback"
    },
    {
      "inputs": [],
      "name": "CONTRACTS_ADDRESS_MANAGER_ROLE",
      "outputs": [
        {
          "internalType": "bytes32",
          "name": "",
          "type": "bytes32"
        }
      ],
      "stateMutability": "view",
      "type": "function"
    },
    {
      "inputs": [],
      "name": "DEFAULT_ADMIN_ROLE",
      "outputs": [
        {
          "internalType": "bytes32",
          "name": "",
          "type": "bytes32"
        }
      ],
      "stateMutability": "view",
      "type": "function"
    },
    {
      "inputs": [
        {
          "internalType": "bytes32",
          "name": "appId",
          "type": "bytes32"
        }
      ],
      "name": "availableFunds",
      "outputs": [
        {
          "internalType": "uint256",
          "name": "",
          "type": "uint256"
        }
      ],
      "stateMutability": "view",
      "type": "function"
    },
    {
      "inputs": [],
      "name": "b3tr",
      "outputs": [
        {
          "internalType": "contract IToken",
          "name": "",
          "type": "address"
        }
      ],
      "stateMutability": "view",
      "type": "function"
    },
    {
      "inputs": [
        {
          "internalType": "uint256",
          "name": "amount",
          "type": "uint256"
        },
        {
          "internalType": "bytes32",
          "name": "appId",
          "type": "bytes32"
        }
      ],
      "name": "deposit",
      "outputs": [
        {
          "internalType": "bool",
          "name": "",
          "type": "bool"
        }
      ],
      "stateMutability": "nonpayable",
      "type": "function"
    },
    {
      "inputs": [
        {
          "internalType": "bytes32",
          "name": "appId",
          "type": "bytes32"
        },
        {
          "internalType": "uint256",
          "name": "amount",
          "type": "uint256"
        },
        {
          "internalType": "address",
          "name": "receiver",
          "type": "address"
        },
        {
          "internalType": "string",
          "name": "proof",
          "type": "string"
        }
      ],
      "name": "distributeReward",
      "outputs": [],
      "stateMutability": "nonpayable",
      "type": "function"
    },
    {
      "inputs": [
        {
          "internalType": "bytes32",
          "name": "role",
          "type": "bytes32"
        }
      ],
      "name": "getRoleAdmin",
      "outputs": [
        {
          "internalType": "bytes32",
          "name": "",
          "type": "bytes32"
        }
      ],
      "stateMutability": "view",
      "type": "function"
    },
    {
      "inputs": [
        {
          "internalType": "bytes32",
          "name": "role",
          "type": "bytes32"
        },
        {
          "internalType": "address",
          "name": "account",
          "type": "address"
        }
      ],
      "name": "grantRole",
      "outputs": [],
      "stateMutability": "nonpayable",
      "type": "function"
    },
    {
      "inputs": [
        {
          "internalType": "bytes32",
          "name": "role",
          "type": "bytes32"
        },
        {
          "internalType": "address",
          "name": "account",
          "type": "address"
        }
      ],
      "name": "hasRole",
      "outputs": [
        {
          "internalType": "bool",
          "name": "",
          "type": "bool"
        }
      ],
      "stateMutability": "view",
      "type": "function"
    },
    {
      "inputs": [
        {
          "internalType": "address",
          "name": "",
          "type": "address"
        },
        {
          "internalType": "address",
          "name": "",
          "type": "address"
        },
        {
          "internalType": "uint256[]",
          "name": "",
          "type": "uint256[]"
        },
        {
          "internalType": "uint256[]",
          "name": "",
          "type": "uint256[]"
        },
        {
          "internalType": "bytes",
          "name": "",
          "type": "bytes"
        }
      ],
      "name": "onERC1155BatchReceived",
      "outputs": [
        {
          "internalType": "bytes4",
          "name": "",
          "type": "bytes4"
        }
      ],
      "stateMutability": "nonpayable",
      "type": "function"
    },
    {
      "inputs": [
        {
          "internalType": "address",
          "name": "",
          "type": "address"
        },
        {
          "internalType": "address",
          "name": "",
          "type": "address"
        },
        {
          "internalType": "uint256",
          "name": "",
          "type": "uint256"
        },
        {
          "internalType": "uint256",
          "name": "",
          "type": "uint256"
        },
        {
          "internalType": "bytes",
          "name": "",
          "type": "bytes"
        }
      ],
      "name": "onERC1155Received",
      "outputs": [
        {
          "internalType": "bytes4",
          "name": "",
          "type": "bytes4"
        }
      ],
      "stateMutability": "nonpayable",
      "type": "function"
    },
    {
      "inputs": [
        {
          "internalType": "address",
          "name": "",
          "type": "address"
        },
        {
          "internalType": "address",
          "name": "",
          "type": "address"
        },
        {
          "internalType": "uint256",
          "name": "",
          "type": "uint256"
        },
        {
          "internalType": "bytes",
          "name": "",
          "type": "bytes"
        }
      ],
      "name": "onERC721Received",
      "outputs": [
        {
          "internalType": "bytes4",
          "name": "",
          "type": "bytes4"
        }
      ],
      "stateMutability": "nonpayable",
      "type": "function"
    },
    {
      "inputs": [
        {
          "internalType": "bytes32",
          "name": "role",
          "type": "bytes32"
        },
        {
          "internalType": "address",
          "name": "callerConfirmation",
          "type": "address"
        }
      ],
      "name": "renounceRole",
      "outputs": [],
      "stateMutability": "nonpayable",
      "type": "function"
    },
    {
      "inputs": [
        {
          "internalType": "bytes32",
          "name": "role",
          "type": "bytes32"
        },
        {
          "internalType": "address",
          "name": "account",
          "type": "address"
        }
      ],
      "name": "revokeRole",
      "outputs": [],
      "stateMutability": "nonpayable",
      "type": "function"
    },
    {
      "inputs": [
        {
          "internalType": "contract IX2EarnAppsMock",
          "name": "_x2EarnApps",
          "type": "address"
        }
      ],
      "name": "setX2EarnApps",
      "outputs": [],
      "stateMutability": "nonpayable",
      "type": "function"
    },
    {
      "inputs": [
        {
          "internalType": "bytes4",
          "name": "interfaceId",
          "type": "bytes4"
        }
      ],
      "name": "supportsInterface",
      "outputs": [
        {
          "internalType": "bool",
          "name": "",
          "type": "bool"
        }
      ],
      "stateMutability": "view",
      "type": "function"
    },
    {
      "inputs": [],
      "name": "version",
      "outputs": [
        {
          "internalType": "string",
          "name": "",
          "type": "string"
        }
      ],
      "stateMutability": "pure",
      "type": "function"
    },
    {
      "inputs": [
        {
          "internalType": "uint256",
          "name": "amount",
          "type": "uint256"
        },
        {
          "internalType": "bytes32",
          "name": "appId",
          "type": "bytes32"
        },
        {
          "internalType": "string",
          "name": "reason",
          "type": "string"
        }
      ],
      "name": "withdraw",
      "outputs": [],
      "stateMutability": "nonpayable",
      "type": "function"
    },
    {
      "inputs": [],
      "name": "x2EarnApps",
      "outputs": [
        {
          "internalType": "contract IX2EarnAppsMock",
          "name": "",
          "type": "address"
        }
      ],
      "stateMutability": "view",
      "type": "function"
    },
    {
      "stateMutability": "payable",
      "type": "receive"
    }
  ],
  "bytecode": "0x60806040523480156200001157600080fd5b5060405162001cfd38038062001cfd8339810160408190526200003491620002ce565b600180556001600160a01b038316620000a95760405162461bcd60e51b815260206004820152602c60248201527f58324561726e52657761726473506f6f6c3a2061646d696e206973207468652060448201526b7a65726f206164647265737360a01b60648201526084015b60405180910390fd5b6001600160a01b038216620001155760405162461bcd60e51b815260206004820152602b60248201527f58324561726e52657761726473506f6f6c3a206233747220697320746865207a60448201526a65726f206164647265737360a81b6064820152608401620000a0565b6001600160a01b038116620001875760405162461bcd60e51b815260206004820152603160248201527f58324561726e52657761726473506f6f6c3a2078324561726e4170707320697360448201527020746865207a65726f206164647265737360781b6064820152608401620000a0565b6200019460008462000206565b507f7c0dcc5654efea34bf150fefe2d7f927494d4026026590e81037cb4c7a9cdc0080546001600160a01b039384166001600160a01b0319918216179091557f7c0dcc5654efea34bf150fefe2d7f927494d4026026590e81037cb4c7a9cdc0180549290931691161790555062000322565b6000828152602081815260408083206001600160a01b038516845290915281205460ff16620002ab576000838152602081815260408083206001600160a01b03861684529091529020805460ff19166001179055620002623390565b6001600160a01b0316826001600160a01b0316847f2f8788117e7eff1d82e926ec794901d17c78024a50270940304540a733656f0d60405160405180910390a4506001620002af565b5060005b92915050565b6001600160a01b0381168114620002cb57600080fd5b50565b600080600060608486031215620002e457600080fd5b8351620002f181620002b5565b60208501519093506200030481620002b5565b60408501519092506200031781620002b5565b809150509250925092565b6119cb80620003326000396000f3fe6080604052600436106101185760003560e01c806391d14854116100a0578063cfe706b311610064578063cfe706b314610428578063d547741f14610448578063f23a6e6114610468578063f274433414610488578063f7335f11146104d457610170565b806391d148541461037f578063952f21331461039f578063a217fddf146103d3578063bc197c81146103e8578063c9630cb01461040857610170565b806333653f5d116100e757806333653f5d1461029357806336568abe146102e457806340a6fc0b1461030457806354fd4d5014610324578063582a486a1461035457610170565b806301ffc9a7146101c5578063150b7a02146101fa578063248a9ca3146102335780632f2ff15d1461027157610170565b366101705760405162461bcd60e51b815260206004820152602f602482015260008051602061197683398151915260448201526e081b9bdd081858d8d95c1d08159155608a1b60648201526084015b60405180910390fd5b60405162461bcd60e51b81526020600482015260366024820152600080516020611976833981519152604482015275206e6f74206163636570742063616c6c732f6461746160501b6064820152608401610167565b3480156101d157600080fd5b506101e56101e03660046112ba565b6104f4565b60405190151581526020015b60405180910390f35b34801561020657600080fd5b5061021a6102153660046113b7565b61052b565b6040516001600160e01b031990911681526020016101f1565b34801561023f57600080fd5b5061026361024e366004611423565b60009081526020819052604090206001015490565b6040519081526020016101f1565b34801561027d57600080fd5b5061029161028c36600461143c565b61058a565b005b34801561029f57600080fd5b507f7c0dcc5654efea34bf150fefe2d7f927494d4026026590e81037cb4c7a9cdc01546001600160a01b03165b6040516001600160a01b0390911681526020016101f1565b3480156102f057600080fd5b506102916102ff36600461143c565b6105b5565b34801561031057600080fd5b5061029161031f36600461146c565b6105ed565b34801561033057600080fd5b5060408051808201825260018152603160f81b602082015290516101f191906114cf565b34801561036057600080fd5b50600080516020611956833981519152546001600160a01b03166102cc565b34801561038b57600080fd5b506101e561039a36600461143c565b6106c9565b3480156103ab57600080fd5b506102637f56af926aa3845d4dc63a6c773ed36f51794728c97ebcd1bf845bcecb16eeb6b781565b3480156103df57600080fd5b50610263600081565b3480156103f457600080fd5b5061021a610403366004611562565b6106f2565b34801561041457600080fd5b506101e5610423366004611610565b610767565b34801561043457600080fd5b50610291610443366004611632565b610944565b34801561045457600080fd5b5061029161046336600461143c565b610d83565b34801561047457600080fd5b5061021a610483366004611682565b610da8565b34801561049457600080fd5b506102636104a3366004611423565b60009081527f7c0dcc5654efea34bf150fefe2d7f927494d4026026590e81037cb4c7a9cdc02602052604090205490565b3480156104e057600080fd5b506102916104ef3660046116eb565b610e07565b60006001600160e01b03198216637965db0b60e01b148061052557506301ffc9a760e01b6001600160e01b03198316145b92915050565b60405162461bcd60e51b8152602060048201526039602482015260008051602061197683398151915260448201527f206e6f74206163636570742045524337323120746f6b656e73000000000000006064820152600090608401610167565b6000828152602081905260409020600101546105a581611149565b6105af8383611156565b50505050565b6001600160a01b03811633146105de5760405163334bd91960e11b815260040160405180910390fd5b6105e882826111e8565b505050565b7f56af926aa3845d4dc63a6c773ed36f51794728c97ebcd1bf845bcecb16eeb6b761061781611149565b6001600160a01b0382166106875760405162461bcd60e51b815260206004820152603160248201527f58324561726e52657761726473506f6f6c3a2078324561726e4170707320697360448201527020746865207a65726f206164647265737360781b6064820152608401610167565b507f7c0dcc5654efea34bf150fefe2d7f927494d4026026590e81037cb4c7a9cdc0180546001600160a01b0319166001600160a01b0392909216919091179055565b6000918252602082815260408084206001600160a01b0393909316845291905290205460ff1690565b60405162461bcd60e51b815260206004820152604d602482015260008051602061197683398151915260448201527f206e6f7420616363657074206261746368207472616e7366657273206f66204560648201526c52433131353520746f6b656e7360981b608482015260009060a401610167565b600080600080516020611956833981519152600181015460405163181efec960e21b8152600481018690529192506001600160a01b03169063607bfb2490602401602060405180830381865afa1580156107c5573d6000803e3d6000fd5b505050506040513d601f19601f820116820180604052508101906107e99190611736565b6108055760405162461bcd60e51b815260040161016790611758565b6000838152600282016020526040812080548692906108259084906117b3565b909155505080546040516323b872dd60e01b8152336004820152306024820152604481018690526001600160a01b03909116906323b872dd906064016020604051808303816000875af1158015610880573d6000803e3d6000fd5b505050506040513d601f19601f820116820180604052508101906108a49190611736565b6109035760405162461bcd60e51b815260206004820152602a60248201527f58324561726e52657761726473506f6f6c3a206465706f736974207472616e7360448201526919995c8819985a5b195960b21b6064820152608401610167565b604051848152339084907fb129470ed4a80566812579bd667bb40c9cc246b5470797f9291f8a27cd3d16309060200160405180910390a35060019392505050565b61094c611253565b6000600080516020611956833981519152600181015460405163181efec960e21b8152600481018690529192506001600160a01b03169063607bfb2490602401602060405180830381865afa1580156109a9573d6000803e3d6000fd5b505050506040513d601f19601f820116820180604052508101906109cd9190611736565b6109e95760405162461bcd60e51b815260040161016790611758565b600181015460405163238e8a7760e21b8152600481018590523360248201526001600160a01b0390911690638e3a29dc90604401602060405180830381865afa158015610a3a573d6000803e3d6000fd5b505050506040513d601f19601f82011682018060405250810190610a5e9190611736565b80610ad95750600181015460405163b58a754760e01b8152600481018590523360248201526001600160a01b039091169063b58a754790604401602060405180830381865afa158015610ab5573d6000803e3d6000fd5b505050506040513d601f19601f82011682018060405250810190610ad99190611736565b610b4b5760405162461bcd60e51b815260206004820152603c60248201527f58324561726e52657761726473506f6f6c3a206e6f7420616e2061707020616460448201527f6d696e206e6f72206120726577617264206469737472696275746f72000000006064820152608401610167565b6000838152600282016020526040902054841115610b7b5760405162461bcd60e51b8152600401610167906117c6565b80546040516370a0823160e01b815230600482015285916001600160a01b0316906370a0823190602401602060405180830381865afa158015610bc2573d6000803e3d6000fd5b505050506040513d601f19601f82011682018060405250810190610be69190611813565b1015610c045760405162461bcd60e51b81526004016101679061182c565b6001810154604051631772503b60e01b8152600481018590526000916001600160a01b031690631772503b90602401602060405180830381865afa158015610c50573d6000803e3d6000fd5b505050506040513d601f19601f82011682018060405250810190610c74919061187d565b9050848260020160008681526020019081526020016000206000828254610c9b919061189a565b9091555050815460405163a9059cbb60e01b81526001600160a01b038381166004830152602482018890529091169063a9059cbb906044016020604051808303816000875af1158015610cf2573d6000803e3d6000fd5b505050506040513d601f19601f82011682018060405250810190610d169190611736565b610d325760405162461bcd60e51b8152600401610167906118ad565b806001600160a01b0316847fd9ffa9a1a748d0d5a7264f97f319a08a8d4925854093354e05965ff93e46d804873387604051610d7093929190611901565b60405180910390a350506105e860018055565b600082815260208190526040902060010154610d9e81611149565b6105af83836111e8565b60405162461bcd60e51b815260206004820152603a602482015260008051602061197683398151915260448201527f206e6f7420616363657074204552433131353520746f6b656e730000000000006064820152600090608401610167565b610e0f611253565b6000600080516020611956833981519152600181015460405163181efec960e21b8152600481018890529192506001600160a01b03169063607bfb2490602401602060405180830381865afa158015610e6c573d6000803e3d6000fd5b505050506040513d601f19601f82011682018060405250810190610e909190611736565b610eac5760405162461bcd60e51b815260040161016790611758565b600181015460405163b58a754760e01b8152600481018790523360248201526001600160a01b039091169063b58a754790604401602060405180830381865afa158015610efd573d6000803e3d6000fd5b505050506040513d601f19601f82011682018060405250810190610f219190611736565b610f815760405162461bcd60e51b815260206004820152602b60248201527f58324561726e52657761726473506f6f6c3a206e6f742061207265776172642060448201526a3234b9ba3934b13aba37b960a91b6064820152608401610167565b6000858152600282016020526040902054841115610fb15760405162461bcd60e51b8152600401610167906117c6565b80546040516370a0823160e01b815230600482015285916001600160a01b0316906370a0823190602401602060405180830381865afa158015610ff8573d6000803e3d6000fd5b505050506040513d601f19601f8201168201806040525081019061101c9190611813565b101561103a5760405162461bcd60e51b81526004016101679061182c565b60008581526002820160205260408120805486929061105a90849061189a565b9091555050805460405163a9059cbb60e01b81526001600160a01b038581166004830152602482018790529091169063a9059cbb906044016020604051808303816000875af11580156110b1573d6000803e3d6000fd5b505050506040513d601f19601f820116820180604052508101906110d59190611736565b6110f15760405162461bcd60e51b8152600401610167906118ad565b336001600160a01b0316836001600160a01b0316867f4811710b0c25cc7e05baf214b3a939cf893f1cbff4d0b219e680f069a4f204a28786604051611137929190611934565b60405180910390a4506105af60018055565b611153813361127d565b50565b600061116283836106c9565b6111e0576000838152602081815260408083206001600160a01b03861684529091529020805460ff191660011790556111983390565b6001600160a01b0316826001600160a01b0316847f2f8788117e7eff1d82e926ec794901d17c78024a50270940304540a733656f0d60405160405180910390a4506001610525565b506000610525565b60006111f483836106c9565b156111e0576000838152602081815260408083206001600160a01b0386168085529252808320805460ff1916905551339286917ff6391f5c32d9c69d2a47ea670b442974b53935d1edc7fd64eb21e047a839171b9190a4506001610525565b60026001540361127657604051633ee5aeb560e01b815260040160405180910390fd5b6002600155565b61128782826106c9565b6112b65760405163e2517d3f60e01b81526001600160a01b038216600482015260248101839052604401610167565b5050565b6000602082840312156112cc57600080fd5b81356001600160e01b0319811681146112e457600080fd5b9392505050565b6001600160a01b038116811461115357600080fd5b634e487b7160e01b600052604160045260246000fd5b604051601f8201601f1916810167ffffffffffffffff8111828210171561133f5761133f611300565b604052919050565b600082601f83011261135857600080fd5b813567ffffffffffffffff81111561137257611372611300565b611385601f8201601f1916602001611316565b81815284602083860101111561139a57600080fd5b816020850160208301376000918101602001919091529392505050565b600080600080608085870312156113cd57600080fd5b84356113d8816112eb565b935060208501356113e8816112eb565b925060408501359150606085013567ffffffffffffffff81111561140b57600080fd5b61141787828801611347565b91505092959194509250565b60006020828403121561143557600080fd5b5035919050565b6000806040838503121561144f57600080fd5b823591506020830135611461816112eb565b809150509250929050565b60006020828403121561147e57600080fd5b81356112e4816112eb565b6000815180845260005b818110156114af57602081850181015186830182015201611493565b506000602082860101526020601f19601f83011685010191505092915050565b6020815260006112e46020830184611489565b600082601f8301126114f357600080fd5b8135602067ffffffffffffffff82111561150f5761150f611300565b8160051b61151e828201611316565b928352848101820192828101908785111561153857600080fd5b83870192505b848310156115575782358252918301919083019061153e565b979650505050505050565b600080600080600060a0868803121561157a57600080fd5b8535611585816112eb565b94506020860135611595816112eb565b9350604086013567ffffffffffffffff808211156115b257600080fd5b6115be89838a016114e2565b945060608801359150808211156115d457600080fd5b6115e089838a016114e2565b935060808801359150808211156115f657600080fd5b5061160388828901611347565b9150509295509295909350565b6000806040838503121561162357600080fd5b50508035926020909101359150565b60008060006060848603121561164757600080fd5b8335925060208401359150604084013567ffffffffffffffff81111561166c57600080fd5b61167886828701611347565b9150509250925092565b600080600080600060a0868803121561169a57600080fd5b85356116a5816112eb565b945060208601356116b5816112eb565b93506040860135925060608601359150608086013567ffffffffffffffff8111156116df57600080fd5b61160388828901611347565b6000806000806080858703121561170157600080fd5b8435935060208501359250604085013561171a816112eb565b9150606085013567ffffffffffffffff81111561140b57600080fd5b60006020828403121561174857600080fd5b815180151581146112e457600080fd5b60208082526025908201527f58324561726e52657761726473506f6f6c3a2061707020646f6573206e6f7420604082015264195e1a5cdd60da1b606082015260800190565b634e487b7160e01b600052601160045260246000fd5b808201808211156105255761052561179d565b6020808252602d908201527f58324561726e52657761726473506f6f6c3a206170702068617320696e73756660408201526c66696369656e742066756e647360981b606082015260800190565b60006020828403121561182557600080fd5b5051919050565b60208082526031908201527f58324561726e52657761726473506f6f6c3a20696e73756666696369656e7420604082015270199d5b991cc81bdb8818dbdb9d1c9858dd607a1b606082015260800190565b60006020828403121561188f57600080fd5b81516112e4816112eb565b818103818111156105255761052561179d565b60208082526034908201527f58324561726e52657761726473506f6f6c3a20416c6c6f636174696f6e207472604082015273185b9cd9995c881d1bc8185c1c0819985a5b195960621b606082015260800190565b8381526001600160a01b038316602082015260606040820181905260009061192b90830184611489565b95945050505050565b82815260406020820152600061194d6040830184611489565b94935050505056fe7c0dcc5654efea34bf150fefe2d7f927494d4026026590e81037cb4c7a9cdc0058324561726e52657761726473506f6f6c3a20636f6e747261637420646f6573a26469706673582212207d39b18da4544f3d483dc5d52300d7c03b4232f750ad867736e8688875f38d3b64736f6c63430008140033",
  "linkReferences": {},
  "deployedLinkReferences": {}
}