{
  "_format": "hh-sol-artifact-1",
  "contractName": "SozoNFT",
  "sourceName": "contracts/SozoNFT.sol",
  "abi": [
    {
      "inputs": [],
      "stateMutability": "nonpayable",
      "type": "constructor"
    },
    {
      "inputs": [
        {
          "internalType": "address",
          "name": "sender",
          "type": "address"
        },
        {
          "internalType": "uint256",
          "name": "tokenId",
          "type": "uint256"
        },
        {
          "internalType": "address",
          "name": "owner",
          "type": "address"
        }
      ],
      "name": "ERC721IncorrectOwner",
      "type": "error"
    },
    {
      "inputs": [
        {
          "internalType": "address",
          "name": "operator",
          "type": "address"
        },
        {
          "internalType": "uint256",
          "name": "tokenId",
          "type": "uint256"
        }
      ],
      "name": "ERC721InsufficientApproval",
      "type": "error"
    },
    {
      "inputs": [
        {
          "internalType": "address",
          "name": "approver",
          "type": "address"
        }
      ],
      "name": "ERC721InvalidApprover",
      "type": "error"
    },
    {
      "inputs": [
        {
          "internalType": "address",
          "name": "operator",
          "type": "address"
        }
      ],
      "name": "ERC721InvalidOperator",
      "type": "error"
    },
    {
      "inputs": [
        {
          "internalType": "address",
          "name": "owner",
          "type": "address"
        }
      ],
      "name": "ERC721InvalidOwner",
      "type": "error"
    },
    {
      "inputs": [
        {
          "internalType": "address",
          "name": "receiver",
          "type": "address"
        }
      ],
      "name": "ERC721InvalidReceiver",
      "type": "error"
    },
    {
      "inputs": [
        {
          "internalType": "address",
          "name": "sender",
          "type": "address"
        }
      ],
      "name": "ERC721InvalidSender",
      "type": "error"
    },
    {
      "inputs": [
        {
          "internalType": "uint256",
          "name": "tokenId",
          "type": "uint256"
        }
      ],
      "name": "ERC721NonexistentToken",
      "type": "error"
    },
    {
      "inputs": [
        {
          "internalType": "address",
          "name": "owner",
          "type": "address"
        }
      ],
      "name": "OwnableInvalidOwner",
      "type": "error"
    },
    {
      "inputs": [
        {
          "internalType": "address",
          "name": "account",
          "type": "address"
        }
      ],
      "name": "OwnableUnauthorizedAccount",
      "type": "error"
    },
    {
      "anonymous": false,
      "inputs": [
        {
          "indexed": true,
          "internalType": "address",
          "name": "owner",
          "type": "address"
        },
        {
          "indexed": true,
          "internalType": "address",
          "name": "approved",
          "type": "address"
        },
        {
          "indexed": true,
          "internalType": "uint256",
          "name": "tokenId",
          "type": "uint256"
        }
      ],
      "name": "Approval",
      "type": "event"
    },
    {
      "anonymous": false,
      "inputs": [
        {
          "indexed": true,
          "internalType": "address",
          "name": "owner",
          "type": "address"
        },
        {
          "indexed": true,
          "internalType": "address",
          "name": "operator",
          "type": "address"
        },
        {
          "indexed": false,
          "internalType": "bool",
          "name": "approved",
          "type": "bool"
        }
      ],
      "name": "ApprovalForAll",
      "type": "event"
    },
    {
      "anonymous": false,
      "inputs": [
        {
          "indexed": false,
          "internalType": "uint256",
          "name": "_fromTokenId",
          "type": "uint256"
        },
        {
          "indexed": false,
          "internalType": "uint256",
          "name": "_toTokenId",
          "type": "uint256"
        }
      ],
      "name": "BatchMetadataUpdate",
      "type": "event"
    },
    {
      "anonymous": false,
      "inputs": [
        {
          "indexed": false,
          "internalType": "uint256",
          "name": "_tokenId",
          "type": "uint256"
        }
      ],
      "name": "MetadataUpdate",
      "type": "event"
    },
    {
      "anonymous": false,
      "inputs": [
        {
          "indexed": true,
          "internalType": "address",
          "name": "previousOwner",
          "type": "address"
        },
        {
          "indexed": true,
          "internalType": "address",
          "name": "newOwner",
          "type": "address"
        }
      ],
      "name": "OwnershipTransferred",
      "type": "event"
    },
    {
      "anonymous": false,
      "inputs": [
        {
          "indexed": true,
          "internalType": "address",
          "name": "from",
          "type": "address"
        },
        {
          "indexed": true,
          "internalType": "address",
          "name": "to",
          "type": "address"
        },
        {
          "indexed": true,
          "internalType": "uint256",
          "name": "tokenId",
          "type": "uint256"
        }
      ],
      "name": "Transfer",
      "type": "event"
    },
    {
      "inputs": [
        {
          "internalType": "address",
          "name": "to",
          "type": "address"
        },
        {
          "internalType": "uint256",
          "name": "tokenId",
          "type": "uint256"
        }
      ],
      "name": "approve",
      "outputs": [],
      "stateMutability": "nonpayable",
      "type": "function"
    },
    {
      "inputs": [
        {
          "internalType": "address",
          "name": "owner",
          "type": "address"
        }
      ],
      "name": "balanceOf",
      "outputs": [
        {
          "internalType": "uint256",
          "name": "",
          "type": "uint256"
        }
      ],
      "stateMutability": "view",
      "type": "function"
    },
    {
      "inputs": [
        {
          "internalType": "uint256",
          "name": "tokenId",
          "type": "uint256"
        }
      ],
      "name": "getApproved",
      "outputs": [
        {
          "internalType": "address",
          "name": "",
          "type": "address"
        }
      ],
      "stateMutability": "view",
      "type": "function"
    },
    {
      "inputs": [
        {
          "internalType": "uint256",
          "name": "tokenId",
          "type": "uint256"
        }
      ],
      "name": "getProductId",
      "outputs": [
        {
          "internalType": "string",
          "name": "",
          "type": "string"
        }
      ],
      "stateMutability": "view",
      "type": "function"
    },
    {
      "inputs": [
        {
          "internalType": "address",
          "name": "owner",
          "type": "address"
        },
        {
          "internalType": "address",
          "name": "operator",
          "type": "address"
        }
      ],
      "name": "isApprovedForAll",
      "outputs": [
        {
          "internalType": "bool",
          "name": "",
          "type": "bool"
        }
      ],
      "stateMutability": "view",
      "type": "function"
    },
    {
      "inputs": [
        {
          "internalType": "address",
          "name": "recipient",
          "type": "address"
        },
        {
          "internalType": "string",
          "name": "tokenURI",
          "type": "string"
        },
        {
          "internalType": "string",
          "name": "productId",
          "type": "string"
        }
      ],
      "name": "mintNFT",
      "outputs": [
        {
          "internalType": "uint256",
          "name": "",
          "type": "uint256"
        }
      ],
      "stateMutability": "nonpayable",
      "type": "function"
    },
    {
      "inputs": [],
      "name": "name",
      "outputs": [
        {
          "internalType": "string",
          "name": "",
          "type": "string"
        }
      ],
      "stateMutability": "view",
      "type": "function"
    },
    {
      "inputs": [],
      "name": "owner",
      "outputs": [
        {
          "internalType": "address",
          "name": "",
          "type": "address"
        }
      ],
      "stateMutability": "view",
      "type": "function"
    },
    {
      "inputs": [
        {
          "internalType": "uint256",
          "name": "tokenId",
          "type": "uint256"
        }
      ],
      "name": "ownerOf",
      "outputs": [
        {
          "internalType": "address",
          "name": "",
          "type": "address"
        }
      ],
      "stateMutability": "view",
      "type": "function"
    },
    {
      "inputs": [],
      "name": "renounceOwnership",
      "outputs": [],
      "stateMutability": "nonpayable",
      "type": "function"
    },
    {
      "inputs": [
        {
          "internalType": "address",
          "name": "from",
          "type": "address"
        },
        {
          "internalType": "address",
          "name": "to",
          "type": "address"
        },
        {
          "internalType": "uint256",
          "name": "tokenId",
          "type": "uint256"
        }
      ],
      "name": "safeTransferFrom",
      "outputs": [],
      "stateMutability": "nonpayable",
      "type": "function"
    },
    {
      "inputs": [
        {
          "internalType": "address",
          "name": "from",
          "type": "address"
        },
        {
          "internalType": "address",
          "name": "to",
          "type": "address"
        },
        {
          "internalType": "uint256",
          "name": "tokenId",
          "type": "uint256"
        },
        {
          "internalType": "bytes",
          "name": "data",
          "type": "bytes"
        }
      ],
      "name": "safeTransferFrom",
      "outputs": [],
      "stateMutability": "nonpayable",
      "type": "function"
    },
    {
      "inputs": [
        {
          "internalType": "address",
          "name": "operator",
          "type": "address"
        },
        {
          "internalType": "bool",
          "name": "approved",
          "type": "bool"
        }
      ],
      "name": "setApprovalForAll",
      "outputs": [],
      "stateMutability": "nonpayable",
      "type": "function"
    },
    {
      "inputs": [
        {
          "internalType": "bytes4",
          "name": "interfaceId",
          "type": "bytes4"
        }
      ],
      "name": "supportsInterface",
      "outputs": [
        {
          "internalType": "bool",
          "name": "",
          "type": "bool"
        }
      ],
      "stateMutability": "view",
      "type": "function"
    },
    {
      "inputs": [],
      "name": "symbol",
      "outputs": [
        {
          "internalType": "string",
          "name": "",
          "type": "string"
        }
      ],
      "stateMutability": "view",
      "type": "function"
    },
    {
      "inputs": [
        {
          "internalType": "uint256",
          "name": "tokenId",
          "type": "uint256"
        }
      ],
      "name": "tokenURI",
      "outputs": [
        {
          "internalType": "string",
          "name": "",
          "type": "string"
        }
      ],
      "stateMutability": "view",
      "type": "function"
    },
    {
      "inputs": [
        {
          "internalType": "address",
          "name": "from",
          "type": "address"
        },
        {
          "internalType": "address",
          "name": "to",
          "type": "address"
        },
        {
          "internalType": "uint256",
          "name": "tokenId",
          "type": "uint256"
        }
      ],
      "name": "transferFrom",
      "outputs": [],
      "stateMutability": "nonpayable",
      "type": "function"
    },
    {
      "inputs": [
        {
          "internalType": "address",
          "name": "from",
          "type": "address"
        },
        {
          "internalType": "address",
          "name": "to",
          "type": "address"
        },
        {
          "internalType": "uint256",
          "name": "tokenId",
          "type": "uint256"
        }
      ],
      "name": "transferNFT",
      "outputs": [],
      "stateMutability": "nonpayable",
      "type": "function"
    },
    {
      "inputs": [
        {
          "internalType": "address",
          "name": "newOwner",
          "type": "address"
        }
      ],
      "name": "transferOwnership",
      "outputs": [],
      "stateMutability": "nonpayable",
      "type": "function"
    }
  ],
  "bytecode": "0x60806040523480156200001157600080fd5b50336040518060400160405280601081526020016f14dbde9bc811985cda1a5bdb8813919560821b81525060405180604001604052806004815260200163534f5a4f60e01b81525081600090816200006a9190620001b4565b506001620000798282620001b4565b5050506001600160a01b038116620000ab57604051631e4fbdf760e01b81526000600482015260240160405180910390fd5b620000b681620000bd565b5062000280565b600780546001600160a01b038381166001600160a01b0319831681179093556040519116919082907f8be0079c531659141344cd1fd0a4f28419497f9722a3daafe3b4186f6b6457e090600090a35050565b634e487b7160e01b600052604160045260246000fd5b600181811c908216806200013a57607f821691505b6020821081036200015b57634e487b7160e01b600052602260045260246000fd5b50919050565b601f821115620001af57600081815260208120601f850160051c810160208610156200018a5750805b601f850160051c820191505b81811015620001ab5782815560010162000196565b5050505b505050565b81516001600160401b03811115620001d057620001d06200010f565b620001e881620001e1845462000125565b8462000161565b602080601f831160018114620002205760008415620002075750858301515b600019600386901b1c1916600185901b178555620001ab565b600085815260208120601f198616915b82811015620002515788860151825594840194600190910190840162000230565b5085821015620002705787850151600019600388901b60f8161c191681555b5050505050600190811b01905550565b61166980620002906000396000f3fe608060405234801561001057600080fd5b50600436106101215760003560e01c8063715018a6116100ad578063a3ee38ae11610071578063a3ee38ae14610257578063b88d4fde1461026a578063c87b56dd1461027d578063e985e9c514610290578063f2fde38b146102a357600080fd5b8063715018a6146102105780638da5cb5b1461021857806395d89b41146102295780639f77a60514610231578063a22cb4651461024457600080fd5b806323b872dd116100f457806323b872dd146101a357806342842e0e146101b65780636352211e146101c957806369e9cae1146101dc57806370a08231146101ef57600080fd5b806301ffc9a71461012657806306fdde031461014e578063081812fc14610163578063095ea7b31461018e575b600080fd5b610139610134366004611108565b6102b6565b60405190151581526020015b60405180910390f35b6101566102e1565b6040516101459190611175565b610176610171366004611188565b610373565b6040516001600160a01b039091168152602001610145565b6101a161019c3660046111bd565b61039c565b005b6101a16101b13660046111e7565b6103ab565b6101a16101c43660046111e7565b61043b565b6101766101d7366004611188565b61045b565b6101a16101ea3660046111e7565b610466565b6102026101fd366004611223565b6104c7565b604051908152602001610145565b6101a161050f565b6007546001600160a01b0316610176565b610156610523565b61015661023f366004611188565b610532565b6101a161025236600461123e565b61062e565b610202610265366004611326565b610639565b6101a161027836600461139a565b610693565b61015661028b366004611188565b6106ab565b61013961029e366004611416565b6107bc565b6101a16102b1366004611223565b6107ea565b60006001600160e01b03198216632483248360e11b14806102db57506102db82610828565b92915050565b6060600080546102f090611449565b80601f016020809104026020016040519081016040528092919081815260200182805461031c90611449565b80156103695780601f1061033e57610100808354040283529160200191610369565b820191906000526020600020905b81548152906001019060200180831161034c57829003601f168201915b5050505050905090565b600061037e82610878565b506000828152600460205260409020546001600160a01b03166102db565b6103a78282336108b1565b5050565b6001600160a01b0382166103da57604051633250574960e11b8152600060048201526024015b60405180910390fd5b60006103e78383336108be565b9050836001600160a01b0316816001600160a01b031614610435576040516364283d7b60e01b81526001600160a01b03808616600483015260248201849052821660448201526064016103d1565b50505050565b61045683838360405180602001604052806000815250610693565b505050565b60006102db82610878565b61047033826109b7565b6104bc5760405162461bcd60e51b815260206004820152601860248201527f4e6f7420617070726f76656420746f207472616e73666572000000000000000060448201526064016103d1565b61045683838361043b565b60006001600160a01b0382166104f3576040516322718ad960e21b8152600060048201526024016103d1565b506001600160a01b031660009081526003602052604090205490565b610517610a15565b6105216000610a42565b565b6060600180546102f090611449565b6000818152600260205260409020546060906001600160a01b03166105905760405162461bcd60e51b8152602060048201526014602482015273151bdad95b88191bd95cc81b9bdd08195e1a5cdd60621b60448201526064016103d1565b600082815260096020526040902080546105a990611449565b80601f01602080910402602001604051908101604052809291908181526020018280546105d590611449565b80156106225780601f106105f757610100808354040283529160200191610622565b820191906000526020600020905b81548152906001019060200180831161060557829003601f168201915b50505050509050919050565b6103a7338383610a94565b6000610643610a15565b6001600860008282546106569190611483565b90915550506008546106688582610b33565b6106728185610b4d565b600081815260096020526040902061068a84826114ea565b50949350505050565b61069e8484846103ab565b6104353385858585610b9d565b60606106b682610878565b50600082815260066020526040812080546106d090611449565b80601f01602080910402602001604051908101604052809291908181526020018280546106fc90611449565b80156107495780601f1061071e57610100808354040283529160200191610749565b820191906000526020600020905b81548152906001019060200180831161072c57829003601f168201915b50505050509050600061076760408051602081019091526000815290565b90508051600003610779575092915050565b8151156107ab5780826040516020016107939291906115aa565b60405160208183030381529060405292505050919050565b6107b484610cc8565b949350505050565b6001600160a01b03918216600090815260056020908152604080832093909416825291909152205460ff1690565b6107f2610a15565b6001600160a01b03811661081c57604051631e4fbdf760e01b8152600060048201526024016103d1565b61082581610a42565b50565b60006001600160e01b031982166380ac58cd60e01b148061085957506001600160e01b03198216635b5e139f60e01b145b806102db57506301ffc9a760e01b6001600160e01b03198316146102db565b6000818152600260205260408120546001600160a01b0316806102db57604051637e27328960e01b8152600481018490526024016103d1565b6104568383836001610d3d565b6000828152600260205260408120546001600160a01b03908116908316156108eb576108eb818486610e43565b6001600160a01b0381161561092957610908600085600080610d3d565b6001600160a01b038116600090815260036020526040902080546000190190555b6001600160a01b03851615610958576001600160a01b0385166000908152600360205260409020805460010190555b60008481526002602052604080822080546001600160a01b0319166001600160a01b0389811691821790925591518793918516917fddf252ad1be2c89b69c2b068fc378daa952ba7f163c4a11628f55a4df523b3ef91a4949350505050565b6000806109c38361045b565b9050806001600160a01b0316846001600160a01b031614806109ea57506109ea81856107bc565b806107b45750836001600160a01b0316610a0384610373565b6001600160a01b031614949350505050565b6007546001600160a01b031633146105215760405163118cdaa760e01b81523360048201526024016103d1565b600780546001600160a01b038381166001600160a01b0319831681179093556040519116919082907f8be0079c531659141344cd1fd0a4f28419497f9722a3daafe3b4186f6b6457e090600090a35050565b6001600160a01b038216610ac657604051630b61174360e31b81526001600160a01b03831660048201526024016103d1565b6001600160a01b03838116600081815260056020908152604080832094871680845294825291829020805460ff191686151590811790915591519182527f17307eab39ab6107e8899845ad3d59bd9653f200f220920489ca2b5937696c31910160405180910390a3505050565b6103a7828260405180602001604052806000815250610ea7565b6000828152600660205260409020610b6582826114ea565b506040518281527ff8e1a15aba9398e019f0b49df1a4fde98ee17ae345cb5f6b5e2c27f5033e8ce79060200160405180910390a15050565b6001600160a01b0383163b15610cc157604051630a85bd0160e11b81526001600160a01b0384169063150b7a0290610bdf9088908890879087906004016115d9565b6020604051808303816000875af1925050508015610c1a575060408051601f3d908101601f19168201909252610c1791810190611616565b60015b610c83573d808015610c48576040519150601f19603f3d011682016040523d82523d6000602084013e610c4d565b606091505b508051600003610c7b57604051633250574960e11b81526001600160a01b03851660048201526024016103d1565b805181602001fd5b6001600160e01b03198116630a85bd0160e11b14610cbf57604051633250574960e11b81526001600160a01b03851660048201526024016103d1565b505b5050505050565b6060610cd382610878565b506000610ceb60408051602081019091526000815290565b90506000815111610d0b5760405180602001604052806000815250610d36565b80610d1584610ebf565b604051602001610d269291906115aa565b6040516020818303038152906040525b9392505050565b8080610d5157506001600160a01b03821615155b15610e13576000610d6184610878565b90506001600160a01b03831615801590610d8d5750826001600160a01b0316816001600160a01b031614155b8015610da05750610d9e81846107bc565b155b15610dc95760405163a9fbf51f60e01b81526001600160a01b03841660048201526024016103d1565b8115610e115783856001600160a01b0316826001600160a01b03167f8c5be1e5ebec7d5bd14f71427d1e84f3dd0314c0f7b2291e5b200ac8c7c3b92560405160405180910390a45b505b5050600090815260046020526040902080546001600160a01b0319166001600160a01b0392909216919091179055565b610e4e838383610f52565b610456576001600160a01b038316610e7c57604051637e27328960e01b8152600481018290526024016103d1565b60405163177e802f60e01b81526001600160a01b0383166004820152602481018290526044016103d1565b610eb18383610fb5565b610456336000858585610b9d565b60606000610ecc8361101a565b600101905060008167ffffffffffffffff811115610eec57610eec61127a565b6040519080825280601f01601f191660200182016040528015610f16576020820181803683370190505b5090508181016020015b600019016f181899199a1a9b1b9c1cb0b131b232b360811b600a86061a8153600a8504945084610f2057509392505050565b60006001600160a01b038316158015906107b45750826001600160a01b0316846001600160a01b03161480610f8c5750610f8c84846107bc565b806107b45750506000908152600460205260409020546001600160a01b03908116911614919050565b6001600160a01b038216610fdf57604051633250574960e11b8152600060048201526024016103d1565b6000610fed838360006108be565b90506001600160a01b03811615610456576040516339e3563760e11b8152600060048201526024016103d1565b60008072184f03e93ff9f4daa797ed6e38ed64bf6a1f0160401b83106110595772184f03e93ff9f4daa797ed6e38ed64bf6a1f0160401b830492506040015b6d04ee2d6d415b85acef81000000008310611085576d04ee2d6d415b85acef8100000000830492506020015b662386f26fc1000083106110a357662386f26fc10000830492506010015b6305f5e10083106110bb576305f5e100830492506008015b61271083106110cf57612710830492506004015b606483106110e1576064830492506002015b600a83106102db5760010192915050565b6001600160e01b03198116811461082557600080fd5b60006020828403121561111a57600080fd5b8135610d36816110f2565b60005b83811015611140578181015183820152602001611128565b50506000910152565b60008151808452611161816020860160208601611125565b601f01601f19169290920160200192915050565b602081526000610d366020830184611149565b60006020828403121561119a57600080fd5b5035919050565b80356001600160a01b03811681146111b857600080fd5b919050565b600080604083850312156111d057600080fd5b6111d9836111a1565b946020939093013593505050565b6000806000606084860312156111fc57600080fd5b611205846111a1565b9250611213602085016111a1565b9150604084013590509250925092565b60006020828403121561123557600080fd5b610d36826111a1565b6000806040838503121561125157600080fd5b61125a836111a1565b91506020830135801515811461126f57600080fd5b809150509250929050565b634e487b7160e01b600052604160045260246000fd5b600067ffffffffffffffff808411156112ab576112ab61127a565b604051601f8501601f19908116603f011681019082821181831017156112d3576112d361127a565b816040528093508581528686860111156112ec57600080fd5b858560208301376000602087830101525050509392505050565b600082601f83011261131757600080fd5b610d3683833560208501611290565b60008060006060848603121561133b57600080fd5b611344846111a1565b9250602084013567ffffffffffffffff8082111561136157600080fd5b61136d87838801611306565b9350604086013591508082111561138357600080fd5b5061139086828701611306565b9150509250925092565b600080600080608085870312156113b057600080fd5b6113b9856111a1565b93506113c7602086016111a1565b925060408501359150606085013567ffffffffffffffff8111156113ea57600080fd5b8501601f810187136113fb57600080fd5b61140a87823560208401611290565b91505092959194509250565b6000806040838503121561142957600080fd5b611432836111a1565b9150611440602084016111a1565b90509250929050565b600181811c9082168061145d57607f821691505b60208210810361147d57634e487b7160e01b600052602260045260246000fd5b50919050565b808201808211156102db57634e487b7160e01b600052601160045260246000fd5b601f82111561045657600081815260208120601f850160051c810160208610156114cb5750805b601f850160051c820191505b81811015610cbf578281556001016114d7565b815167ffffffffffffffff8111156115045761150461127a565b611518816115128454611449565b846114a4565b602080601f83116001811461154d57600084156115355750858301515b600019600386901b1c1916600185901b178555610cbf565b600085815260208120601f198616915b8281101561157c5788860151825594840194600190910190840161155d565b508582101561159a5787850151600019600388901b60f8161c191681555b5050505050600190811b01905550565b600083516115bc818460208801611125565b8351908301906115d0818360208801611125565b01949350505050565b6001600160a01b038581168252841660208201526040810183905260806060820181905260009061160c90830184611149565b9695505050505050565b60006020828403121561162857600080fd5b8151610d36816110f256fea26469706673582212205361c0f3e852fe83bf1aa71d03821a2f97f66d8ee18d7c3aa55a6b7625c898a964736f6c63430008140033",
  "linkReferences": {},
  "deployedLinkReferences": {}
}